{
  "contractName": "lendContract",
  "abi": [
    {
      "anonymous": false,
      "inputs": [
        {
          "indexed": false,
          "internalType": "string",
          "name": "propId",
          "type": "string"
        },
        {
          "indexed": false,
          "internalType": "address",
          "name": "transferto",
          "type": "address"
        }
      ],
      "name": "transferDone",
      "type": "event"
    },
    {
      "inputs": [
        {
          "internalType": "uint256",
          "name": "_amt",
          "type": "uint256"
        },
        {
          "internalType": "string",
          "name": "_prop",
          "type": "string"
        },
        {
          "internalType": "uint256",
          "name": "_rate",
          "type": "uint256"
        }
      ],
      "name": "GiveDetails",
      "outputs": [],
      "stateMutability": "nonpayable",
      "type": "function"
    },
    {
      "inputs": [
        {
          "internalType": "string",
          "name": "_prop",
          "type": "string"
        }
      ],
      "name": "GetDetails",
      "outputs": [
        {
          "internalType": "string",
          "name": "",
          "type": "string"
        },
        {
          "internalType": "uint256",
          "name": "",
          "type": "uint256"
        },
        {
          "internalType": "uint256",
          "name": "",
          "type": "uint256"
        }
      ],
      "stateMutability": "view",
      "type": "function",
      "constant": true
    },
    {
      "inputs": [
        {
          "internalType": "string",
          "name": "_propId",
          "type": "string"
        }
      ],
      "name": "GiveLoan",
      "outputs": [],
      "stateMutability": "payable",
      "type": "function",
      "payable": true
    },
    {
      "inputs": [
        {
          "internalType": "string",
          "name": "_propId",
          "type": "string"
        }
      ],
      "name": "PayEmi",
      "outputs": [],
      "stateMutability": "payable",
      "type": "function",
      "payable": true
    },
    {
      "inputs": [],
      "name": "transfer",
      "outputs": [],
      "stateMutability": "payable",
      "type": "function",
      "payable": true
    }
  ],
  "bytecode": "0x608060405234801561001057600080fd5b50610cc9806100206000396000f3fe60806040526004361061004a5760003560e01c8063065acc1d1461004f578063270d42881461006b5780638a4068dd146100aa578063d149a596146100b4578063f54fbea4146100dd575b600080fd5b61006960048036038101906100649190610683565b6100f9565b005b34801561007757600080fd5b50610092600480360381019061008d9190610683565b6101ab565b6040516100a193929190610873565b60405180910390f35b6100b2610202565b005b3480156100c057600080fd5b506100db60048036038101906100d691906106cc565b61035d565b005b6100f760048036038101906100f29190610683565b61047d565b005b670de0b6b3a7640000600182604051610112919061082c565b90815260200160405180910390206000015461012e91906109bf565b341461016f576040517f08c379a0000000000000000000000000000000000000000000000000000000008152600401610166906108b1565b60405180910390fd5b7f92e9a4c99384de9950ff502e799c18b245c3cbd3eac60f8da775e483409a915681336040516101a0929190610843565b60405180910390a150565b6060600080836001856040516101c1919061082c565b9081526020016040518091039020600001546001866040516101e3919061082c565b9081526020016040518091039020600101549250925092509193909250565b60008060003373ffffffffffffffffffffffffffffffffffffffff1673ffffffffffffffffffffffffffffffffffffffff1681526020019081526020016000206000015411610286576040517f08c379a000000000000000000000000000000000000000000000000000000000815260040161027d906108d1565b60405180910390fd5b60003390508073ffffffffffffffffffffffffffffffffffffffff166108fc6000803373ffffffffffffffffffffffffffffffffffffffff1673ffffffffffffffffffffffffffffffffffffffff168152602001908152602001600020600001549081150290604051600060405180830381858888f19350505050158015610312573d6000803e3d6000fd5b5060008060003373ffffffffffffffffffffffffffffffffffffffff1673ffffffffffffffffffffffffffffffffffffffff1681526020019081526020016000206000018190555050565b670de0b6b3a76400008361037191906109bf565b6000803373ffffffffffffffffffffffffffffffffffffffff1673ffffffffffffffffffffffffffffffffffffffff16815260200190815260200160002060000181905550816000803373ffffffffffffffffffffffffffffffffffffffff1673ffffffffffffffffffffffffffffffffffffffff168152602001908152602001600020600101908051906020019061040b92919061055b565b50806000803373ffffffffffffffffffffffffffffffffffffffff1673ffffffffffffffffffffffffffffffffffffffff1681526020019081526020016000206002018190555082600183604051610463919061082c565b908152602001604051809103902060000181905550505050565b670de0b6b3a7640000600182604051610496919061082c565b9081526020016040518091039020600101546001836040516104b8919061082c565b9081526020016040518091039020600001546104d4919061098e565b6104de91906109bf565b341461051f576040517f08c379a0000000000000000000000000000000000000000000000000000000008152600401610516906108f1565b60405180910390fd5b7f92e9a4c99384de9950ff502e799c18b245c3cbd3eac60f8da775e483409a91568133604051610550929190610843565b60405180910390a150565b82805461056790610a97565b90600052602060002090601f01602090048101928261058957600085556105d0565b82601f106105a257805160ff19168380011785556105d0565b828001600101855582156105d0579182015b828111156105cf5782518255916020019190600101906105b4565b5b5090506105dd91906105e1565b5090565b5b808211156105fa5760008160009055506001016105e2565b5090565b600061061161060c84610936565b610911565b90508281526020810184848401111561062d5761062c610bbb565b5b610638848285610a55565b509392505050565b600082601f83011261065557610654610bb6565b5b81356106658482602086016105fe565b91505092915050565b60008135905061067d81610c7c565b92915050565b60006020828403121561069957610698610bc5565b5b600082013567ffffffffffffffff8111156106b7576106b6610bc0565b5b6106c384828501610640565b91505092915050565b6000806000606084860312156106e5576106e4610bc5565b5b60006106f38682870161066e565b935050602084013567ffffffffffffffff81111561071457610713610bc0565b5b61072086828701610640565b92505060406107318682870161066e565b9150509250925092565b61074481610a19565b82525050565b600061075582610967565b61075f8185610972565b935061076f818560208601610a64565b61077881610bca565b840191505092915050565b600061078e82610967565b6107988185610983565b93506107a8818560208601610a64565b80840191505092915050565b60006107c1602283610972565b91506107cc82610bdb565b604082019050919050565b60006107e4601983610972565b91506107ef82610c2a565b602082019050919050565b6000610807601c83610972565b915061081282610c53565b602082019050919050565b61082681610a4b565b82525050565b60006108388284610783565b915081905092915050565b6000604082019050818103600083015261085d818561074a565b905061086c602083018461073b565b9392505050565b6000606082019050818103600083015261088d818661074a565b905061089c602083018561081d565b6108a9604083018461081d565b949350505050565b600060208201905081810360008301526108ca816107b4565b9050919050565b600060208201905081810360008301526108ea816107d7565b9050919050565b6000602082019050818103600083015261090a816107fa565b9050919050565b600061091b61092c565b90506109278282610ac9565b919050565b6000604051905090565b600067ffffffffffffffff82111561095157610950610b87565b5b61095a82610bca565b9050602081019050919050565b600081519050919050565b600082825260208201905092915050565b600081905092915050565b600061099982610a4b565b91506109a483610a4b565b9250826109b4576109b3610b29565b5b828204905092915050565b60006109ca82610a4b565b91506109d583610a4b565b9250817fffffffffffffffffffffffffffffffffffffffffffffffffffffffffffffffff0483118215151615610a0e57610a0d610afa565b5b828202905092915050565b6000610a2482610a2b565b9050919050565b600073ffffffffffffffffffffffffffffffffffffffff82169050919050565b6000819050919050565b82818337600083830152505050565b60005b83811015610a82578082015181840152602081019050610a67565b83811115610a91576000848401525b50505050565b60006002820490506001821680610aaf57607f821691505b60208210811415610ac357610ac2610b58565b5b50919050565b610ad282610bca565b810181811067ffffffffffffffff82111715610af157610af0610b87565b5b80604052505050565b7f4e487b7100000000000000000000000000000000000000000000000000000000600052601160045260246000fd5b7f4e487b7100000000000000000000000000000000000000000000000000000000600052601260045260246000fd5b7f4e487b7100000000000000000000000000000000000000000000000000000000600052602260045260246000fd5b7f4e487b7100000000000000000000000000000000000000000000000000000000600052604160045260246000fd5b600080fd5b600080fd5b600080fd5b600080fd5b6000601f19601f8301169050919050565b7f4769766520457861637420616d6f756e74206f66207468652070726f7065727460008201527f7920000000000000000000000000000000000000000000000000000000000000602082015250565b7f4e6f206c6f616e2064657461696c732061726520666f756e6400000000000000600082015250565b7f4769766520457861637420616d6f756e74206f662074686520454d4900000000600082015250565b610c8581610a4b565b8114610c9057600080fd5b5056fea26469706673582212204708170a0da2ab062bf6a51281dd24e0bae37c93ade8b9834f4c014b9887423d64736f6c63430008060033",
  "immutableReferences": {},
  "source": "// SPDX-License-Identifier: MIT\npragma solidity  ^0.8.0;\n// pragma solidity >=0.4.22 <0.7.0;\n\n\n// import \"@openzeppelin/contracts/access/Ownable.sol\";\n// constructor ()  {\n//        owner = msg.sender;\n//    }\n\ncontract lendContract{\n\n    event transferDone(string propId, address transferto);\n    \n    struct details {\n        uint256 amount;\n        string propId;\n        uint256 rate;\n    }\n\n    struct emiDetails {\n        uint256 amount;\n        uint256 rate;\n    }\n    \n\n    mapping (address => details) BorrowList;\n    mapping (string => emiDetails) BorrowDetails;\n\n\n\n    function GiveDetails(uint256 _amt, string memory _prop, uint256 _rate) public {\n        BorrowList[msg.sender].amount = _amt * 1 ether;\n        BorrowList[msg.sender].propId = _prop;\n        BorrowList[msg.sender].rate = _rate;\n        BorrowDetails[_prop].amount = _amt;\n\n    }\n\n    function GetDetails(string memory _prop) public view returns(string memory, uint256 , uint256) {\n        return (_prop, BorrowDetails[_prop].amount, BorrowDetails[_prop].rate);\n    }\n\n    function GiveLoan(string memory _propId) public payable {\n        require(msg.value == BorrowDetails[_propId].amount * 1 ether , \"Give Exact amount of the property \");\n        emit transferDone(_propId, msg.sender);\n    }\n    //pay emi\n    function PayEmi(string memory _propId) public payable {\n        require(msg.value == (BorrowDetails[_propId].amount / BorrowDetails[_propId].rate ) * 1 ether , \"Give Exact amount of the EMI\");\n        emit transferDone(_propId, msg.sender);\n    }\n    \n\n    function transfer() public payable  {\n        require(BorrowList[msg.sender].amount > 0, \"No loan details are found\");\n        address payable recipient = payable(msg.sender);\n        recipient.transfer(BorrowList[msg.sender].amount);\n        BorrowList[msg.sender].amount = 0;\n    }\n}",
  "sourcePath": "/Users/prathamshukla/Desktop/code/school/finalYear/lendify/web2/contracts/Lend.sol",
  "compiler": {
    "name": "solc",
    "version": "0.8.6+commit.11564f7e.Emscripten.clang"
  },
  "schemaVersion": "3.4.16",
  "updatedAt": "2024-04-13T21:11:36.284Z",
  "networkType": "ethereum",
  "devdoc": {
    "kind": "dev",
    "methods": {},
    "version": 1
  },
  "userdoc": {
    "kind": "user",
    "methods": {},
    "version": 1
  }
}